{
  "_format": "hh-sol-artifact-1",
  "contractName": "Stems",
  "sourceName": "contracts/Stems.sol",
  "abi": [
    {
      "inputs": [
        {
          "internalType": "uint256",
          "name": "_stemPriceInWei",
          "type": "uint256"
        },
        {
          "internalType": "uint256",
          "name": "_maxStems",
          "type": "uint256"
        }
      ],
      "stateMutability": "nonpayable",
      "type": "constructor"
    },
    {
      "anonymous": false,
      "inputs": [
        {
          "indexed": true,
          "internalType": "address",
          "name": "owner",
          "type": "address"
        },
        {
          "indexed": true,
          "internalType": "address",
          "name": "approved",
          "type": "address"
        },
        {
          "indexed": true,
          "internalType": "uint256",
          "name": "tokenId",
          "type": "uint256"
        }
      ],
      "name": "Approval",
      "type": "event"
    },
    {
      "anonymous": false,
      "inputs": [
        {
          "indexed": true,
          "internalType": "address",
          "name": "owner",
          "type": "address"
        },
        {
          "indexed": true,
          "internalType": "address",
          "name": "operator",
          "type": "address"
        },
        {
          "indexed": false,
          "internalType": "bool",
          "name": "approved",
          "type": "bool"
        }
      ],
      "name": "ApprovalForAll",
      "type": "event"
    },
    {
      "anonymous": false,
      "inputs": [
        {
          "indexed": true,
          "internalType": "address",
          "name": "_forager",
          "type": "address"
        },
        {
          "indexed": true,
          "internalType": "uint256",
          "name": "_tokenId",
          "type": "uint256"
        }
      ],
      "name": "ForagedStem",
      "type": "event"
    },
    {
      "anonymous": false,
      "inputs": [
        {
          "indexed": true,
          "internalType": "address",
          "name": "previousOwner",
          "type": "address"
        },
        {
          "indexed": true,
          "internalType": "address",
          "name": "newOwner",
          "type": "address"
        }
      ],
      "name": "OwnershipTransferred",
      "type": "event"
    },
    {
      "anonymous": false,
      "inputs": [
        {
          "indexed": true,
          "internalType": "address",
          "name": "from",
          "type": "address"
        },
        {
          "indexed": true,
          "internalType": "address",
          "name": "to",
          "type": "address"
        },
        {
          "indexed": true,
          "internalType": "uint256",
          "name": "tokenId",
          "type": "uint256"
        }
      ],
      "name": "Transfer",
      "type": "event"
    },
    {
      "inputs": [
        {
          "internalType": "address",
          "name": "to",
          "type": "address"
        },
        {
          "internalType": "uint256",
          "name": "tokenId",
          "type": "uint256"
        }
      ],
      "name": "approve",
      "outputs": [],
      "stateMutability": "nonpayable",
      "type": "function"
    },
    {
      "inputs": [
        {
          "internalType": "address",
          "name": "owner",
          "type": "address"
        }
      ],
      "name": "balanceOf",
      "outputs": [
        {
          "internalType": "uint256",
          "name": "",
          "type": "uint256"
        }
      ],
      "stateMutability": "view",
      "type": "function"
    },
    {
      "inputs": [],
      "name": "baseIpfs",
      "outputs": [
        {
          "internalType": "string",
          "name": "",
          "type": "string"
        }
      ],
      "stateMutability": "view",
      "type": "function"
    },
    {
      "inputs": [],
      "name": "baseURI",
      "outputs": [
        {
          "internalType": "string",
          "name": "",
          "type": "string"
        }
      ],
      "stateMutability": "view",
      "type": "function"
    },
    {
      "inputs": [
        {
          "internalType": "uint256",
          "name": "tokenId",
          "type": "uint256"
        }
      ],
      "name": "getApproved",
      "outputs": [
        {
          "internalType": "address",
          "name": "",
          "type": "address"
        }
      ],
      "stateMutability": "view",
      "type": "function"
    },
    {
      "inputs": [
        {
          "internalType": "bytes32",
          "name": "",
          "type": "bytes32"
        }
      ],
      "name": "hashToId",
      "outputs": [
        {
          "internalType": "uint256",
          "name": "",
          "type": "uint256"
        }
      ],
      "stateMutability": "view",
      "type": "function"
    },
    {
      "inputs": [
        {
          "internalType": "address",
          "name": "owner",
          "type": "address"
        },
        {
          "internalType": "address",
          "name": "operator",
          "type": "address"
        }
      ],
      "name": "isApprovedForAll",
      "outputs": [
        {
          "internalType": "bool",
          "name": "",
          "type": "bool"
        }
      ],
      "stateMutability": "view",
      "type": "function"
    },
    {
      "inputs": [],
      "name": "lastTokenId",
      "outputs": [
        {
          "internalType": "uint256",
          "name": "",
          "type": "uint256"
        }
      ],
      "stateMutability": "view",
      "type": "function"
    },
    {
      "inputs": [],
      "name": "maxStems",
      "outputs": [
        {
          "internalType": "uint256",
          "name": "",
          "type": "uint256"
        }
      ],
      "stateMutability": "view",
      "type": "function"
    },
    {
      "inputs": [],
      "name": "mintStem",
      "outputs": [
        {
          "internalType": "uint256",
          "name": "_tokenId",
          "type": "uint256"
        }
      ],
      "stateMutability": "payable",
      "type": "function"
    },
    {
      "inputs": [],
      "name": "name",
      "outputs": [
        {
          "internalType": "string",
          "name": "",
          "type": "string"
        }
      ],
      "stateMutability": "view",
      "type": "function"
    },
    {
      "inputs": [],
      "name": "nextTokenId",
      "outputs": [
        {
          "internalType": "uint256",
          "name": "",
          "type": "uint256"
        }
      ],
      "stateMutability": "view",
      "type": "function"
    },
    {
      "inputs": [],
      "name": "on_off_button",
      "outputs": [
        {
          "internalType": "bool",
          "name": "",
          "type": "bool"
        }
      ],
      "stateMutability": "nonpayable",
      "type": "function"
    },
    {
      "inputs": [],
      "name": "owner",
      "outputs": [
        {
          "internalType": "address",
          "name": "",
          "type": "address"
        }
      ],
      "stateMutability": "view",
      "type": "function"
    },
    {
      "inputs": [
        {
          "internalType": "uint256",
          "name": "tokenId",
          "type": "uint256"
        }
      ],
      "name": "ownerOf",
      "outputs": [
        {
          "internalType": "address",
          "name": "",
          "type": "address"
        }
      ],
      "stateMutability": "view",
      "type": "function"
    },
    {
      "inputs": [],
      "name": "renounceOwnership",
      "outputs": [],
      "stateMutability": "nonpayable",
      "type": "function"
    },
    {
      "inputs": [
        {
          "internalType": "address",
          "name": "from",
          "type": "address"
        },
        {
          "internalType": "address",
          "name": "to",
          "type": "address"
        },
        {
          "internalType": "uint256",
          "name": "tokenId",
          "type": "uint256"
        }
      ],
      "name": "safeTransferFrom",
      "outputs": [],
      "stateMutability": "nonpayable",
      "type": "function"
    },
    {
      "inputs": [
        {
          "internalType": "address",
          "name": "from",
          "type": "address"
        },
        {
          "internalType": "address",
          "name": "to",
          "type": "address"
        },
        {
          "internalType": "uint256",
          "name": "tokenId",
          "type": "uint256"
        },
        {
          "internalType": "bytes",
          "name": "_data",
          "type": "bytes"
        }
      ],
      "name": "safeTransferFrom",
      "outputs": [],
      "stateMutability": "nonpayable",
      "type": "function"
    },
    {
      "inputs": [],
      "name": "script",
      "outputs": [
        {
          "internalType": "string",
          "name": "",
          "type": "string"
        }
      ],
      "stateMutability": "view",
      "type": "function"
    },
    {
      "inputs": [],
      "name": "scriptJson",
      "outputs": [
        {
          "internalType": "string",
          "name": "",
          "type": "string"
        }
      ],
      "stateMutability": "view",
      "type": "function"
    },
    {
      "inputs": [
        {
          "internalType": "address",
          "name": "operator",
          "type": "address"
        },
        {
          "internalType": "bool",
          "name": "approved",
          "type": "bool"
        }
      ],
      "name": "setApprovalForAll",
      "outputs": [],
      "stateMutability": "nonpayable",
      "type": "function"
    },
    {
      "inputs": [
        {
          "internalType": "string",
          "name": "_baseURI",
          "type": "string"
        }
      ],
      "name": "setBaseURI",
      "outputs": [],
      "stateMutability": "nonpayable",
      "type": "function"
    },
    {
      "inputs": [],
      "name": "stemPriceInWei",
      "outputs": [
        {
          "internalType": "uint256",
          "name": "",
          "type": "uint256"
        }
      ],
      "stateMutability": "view",
      "type": "function"
    },
    {
      "inputs": [
        {
          "internalType": "bytes4",
          "name": "interfaceId",
          "type": "bytes4"
        }
      ],
      "name": "supportsInterface",
      "outputs": [
        {
          "internalType": "bool",
          "name": "",
          "type": "bool"
        }
      ],
      "stateMutability": "view",
      "type": "function"
    },
    {
      "inputs": [],
      "name": "symbol",
      "outputs": [
        {
          "internalType": "string",
          "name": "",
          "type": "string"
        }
      ],
      "stateMutability": "view",
      "type": "function"
    },
    {
      "inputs": [
        {
          "internalType": "uint256",
          "name": "tokenId",
          "type": "uint256"
        }
      ],
      "name": "tokenURI",
      "outputs": [
        {
          "internalType": "string",
          "name": "",
          "type": "string"
        }
      ],
      "stateMutability": "view",
      "type": "function"
    },
    {
      "inputs": [
        {
          "internalType": "address",
          "name": "from",
          "type": "address"
        },
        {
          "internalType": "address",
          "name": "to",
          "type": "address"
        },
        {
          "internalType": "uint256",
          "name": "tokenId",
          "type": "uint256"
        }
      ],
      "name": "transferFrom",
      "outputs": [],
      "stateMutability": "nonpayable",
      "type": "function"
    },
    {
      "inputs": [
        {
          "internalType": "address",
          "name": "newOwner",
          "type": "address"
        }
      ],
      "name": "transferOwnership",
      "outputs": [],
      "stateMutability": "nonpayable",
      "type": "function"
    },
    {
      "inputs": [
        {
          "internalType": "uint256",
          "name": "_stemPriceInWei",
          "type": "uint256"
        }
      ],
      "name": "updatePrice",
      "outputs": [
        {
          "internalType": "bool",
          "name": "",
          "type": "bool"
        }
      ],
      "stateMutability": "nonpayable",
      "type": "function"
    }
  ],
  "bytecode": "0x60806040523480156200001157600080fd5b5060405162003dbd38038062003dbd8339818101604052810190620000379190620002a2565b6040518060400160405280600881526020017f616e645374656d730000000000000000000000000000000000000000000000008152506040518060400160405280600581526020017f5354454d530000000000000000000000000000000000000000000000000000008152508160009080519060200190620000bb929190620001db565b508060019080519060200190620000d4929190620001db565b505050620000f7620000eb6200010d60201b60201c565b6200011560201b60201c565b80600b8190555081600a8190555050506200036c565b600033905090565b6000600660009054906101000a900473ffffffffffffffffffffffffffffffffffffffff16905081600660006101000a81548173ffffffffffffffffffffffffffffffffffffffff021916908373ffffffffffffffffffffffffffffffffffffffff1602179055508173ffffffffffffffffffffffffffffffffffffffff168173ffffffffffffffffffffffffffffffffffffffff167f8be0079c531659141344cd1fd0a4f28419497f9722a3daafe3b4186f6b6457e060405160405180910390a35050565b828054620001e990620002ed565b90600052602060002090601f0160209004810192826200020d576000855562000259565b82601f106200022857805160ff191683800117855562000259565b8280016001018555821562000259579182015b82811115620002585782518255916020019190600101906200023b565b5b5090506200026891906200026c565b5090565b5b80821115620002875760008160009055506001016200026d565b5090565b6000815190506200029c8162000352565b92915050565b60008060408385031215620002b657600080fd5b6000620002c6858286016200028b565b9250506020620002d9858286016200028b565b9150509250929050565b6000819050919050565b600060028204905060018216806200030657607f821691505b602082108114156200031d576200031c62000323565b5b50919050565b7f4e487b7100000000000000000000000000000000000000000000000000000000600052602260045260246000fd5b6200035d81620002e3565b81146200036957600080fd5b50565b613a41806200037c6000396000f3fe6080604052600436106101c25760003560e01c80636c0360eb116100f757806395d89b4111610095578063e985e9c511610064578063e985e9c51461064b578063ebe9eb9f14610688578063f2fde38b146106b3578063f84ddf0b146106dc576101c2565b806395d89b4114610591578063a22cb465146105bc578063b88d4fde146105e5578063c87b56dd1461060e576101c2565b806375794a3c116100d157806375794a3c146104d35780638d6cc56d146104fe5780638da5cb5b1461053b57806395b5ba8514610566576101c2565b80636c0360eb1461045457806370a082311461047f578063715018a6146104bc576101c2565b80631c05207b1161016457806342842e0e1161013e57806342842e0e1461039a57806355f804b3146103c35780636352211e146103ec5780636695b59214610429576101c2565b80631c05207b1461031b57806323b872dd1461034657806338d96b4f1461036f576101c2565b806306fdde03116101a057806306fdde031461024d578063081812fc14610278578063095ea7b3146102b5578063095f0773146102de576101c2565b806301ffc9a7146101c757806304691e111461020457806305d703311461022f575b600080fd5b3480156101d357600080fd5b506101ee60048036038101906101e9919061276b565b610707565b6040516101fb9190612cd1565b60405180910390f35b34801561021057600080fd5b506102196107e9565b6040516102269190612cec565b60405180910390f35b610237610877565b6040516102449190612f8e565b60405180910390f35b34801561025957600080fd5b50610262610980565b60405161026f9190612cec565b60405180910390f35b34801561028457600080fd5b5061029f600480360381019061029a91906127fe565b610a12565b6040516102ac9190612c6a565b60405180910390f35b3480156102c157600080fd5b506102dc60048036038101906102d79190612706565b610a97565b005b3480156102ea57600080fd5b5061030560048036038101906103009190612742565b610baf565b6040516103129190612f8e565b60405180910390f35b34801561032757600080fd5b50610330610bc7565b60405161033d9190612cd1565b60405180910390f35b34801561035257600080fd5b5061036d60048036038101906103689190612600565b610c76565b005b34801561037b57600080fd5b50610384610cd6565b6040516103919190612cec565b60405180910390f35b3480156103a657600080fd5b506103c160048036038101906103bc9190612600565b610d64565b005b3480156103cf57600080fd5b506103ea60048036038101906103e591906127bd565b610d84565b005b3480156103f857600080fd5b50610413600480360381019061040e91906127fe565b610e1a565b6040516104209190612c6a565b60405180910390f35b34801561043557600080fd5b5061043e610ecc565b60405161044b9190612f8e565b60405180910390f35b34801561046057600080fd5b50610469610ed2565b6040516104769190612cec565b60405180910390f35b34801561048b57600080fd5b506104a660048036038101906104a1919061259b565b610f60565b6040516104b39190612f8e565b60405180910390f35b3480156104c857600080fd5b506104d1611018565b005b3480156104df57600080fd5b506104e86110a0565b6040516104f59190612f8e565b60405180910390f35b34801561050a57600080fd5b50610525600480360381019061052091906127fe565b6110a6565b6040516105329190612cd1565b60405180910390f35b34801561054757600080fd5b50610550611184565b60405161055d9190612c6a565b60405180910390f35b34801561057257600080fd5b5061057b6111ae565b6040516105889190612f8e565b60405180910390f35b34801561059d57600080fd5b506105a66111b4565b6040516105b39190612cec565b60405180910390f35b3480156105c857600080fd5b506105e360048036038101906105de91906126ca565b611246565b005b3480156105f157600080fd5b5061060c6004803603810190610607919061264f565b6113c7565b005b34801561061a57600080fd5b50610635600480360381019061063091906127fe565b611429565b6040516106429190612cec565b60405180910390f35b34801561065757600080fd5b50610672600480360381019061066d91906125c4565b6114d0565b60405161067f9190612cd1565b60405180910390f35b34801561069457600080fd5b5061069d611564565b6040516106aa9190612cec565b60405180910390f35b3480156106bf57600080fd5b506106da60048036038101906106d5919061259b565b6115f2565b005b3480156106e857600080fd5b506106f16116ea565b6040516106fe9190612f8e565b60405180910390f35b60007f80ac58cd000000000000000000000000000000000000000000000000000000007bffffffffffffffffffffffffffffffffffffffffffffffffffffffff1916827bffffffffffffffffffffffffffffffffffffffffffffffffffffffff191614806107d257507f5b5e139f000000000000000000000000000000000000000000000000000000007bffffffffffffffffffffffffffffffffffffffffffffffffffffffff1916827bffffffffffffffffffffffffffffffffffffffffffffffffffffffff1916145b806107e257506107e1826116f0565b5b9050919050565b600d80546107f6906131ee565b80601f0160208091040260200160405190810160405280929190818152602001828054610822906131ee565b801561086f5780601f106108445761010080835404028352916020019161086f565b820191906000526020600020905b81548152906001019060200180831161085257829003601f168201915b505050505081565b6000601360009054906101000a900460ff166108c8576040517f08c379a00000000000000000000000000000000000000000000000000000000081526004016108bf90612d6e565b60405180910390fd5b600b5460016108d7600761175a565b6108e19190613073565b1115610922576040517f08c379a000000000000000000000000000000000000000000000000000000000815260040161091990612e0e565b60405180910390fd5b600a543414610966576040517f08c379a000000000000000000000000000000000000000000000000000000000815260040161095d90612dee565b60405180910390fd5b6000339050600061097682611768565b9050809250505090565b60606000805461098f906131ee565b80601f01602080910402602001604051908101604052809291908181526020018280546109bb906131ee565b8015610a085780601f106109dd57610100808354040283529160200191610a08565b820191906000526020600020905b8154815290600101906020018083116109eb57829003601f168201915b5050505050905090565b6000610a1d82611848565b610a5c576040517f08c379a0000000000000000000000000000000000000000000000000000000008152600401610a5390612eae565b60405180910390fd5b6004600083815260200190815260200160002060009054906101000a900473ffffffffffffffffffffffffffffffffffffffff169050919050565b6000610aa282610e1a565b90508073ffffffffffffffffffffffffffffffffffffffff168373ffffffffffffffffffffffffffffffffffffffff161415610b13576040517f08c379a0000000000000000000000000000000000000000000000000000000008152600401610b0a90612f2e565b60405180910390fd5b8073ffffffffffffffffffffffffffffffffffffffff16610b326118b4565b73ffffffffffffffffffffffffffffffffffffffff161480610b615750610b6081610b5b6118b4565b6114d0565b5b610ba0576040517f08c379a0000000000000000000000000000000000000000000000000000000008152600401610b9790612e2e565b60405180910390fd5b610baa83836118bc565b505050565b60116020528060005260406000206000915090505481565b6000610bd16118b4565b73ffffffffffffffffffffffffffffffffffffffff16610bef611184565b73ffffffffffffffffffffffffffffffffffffffff1614610c45576040517f08c379a0000000000000000000000000000000000000000000000000000000008152600401610c3c90612ece565b60405180910390fd5b601360009054906101000a900460ff1615601360006101000a81548160ff0219169083151502179055506001905090565b610c87610c816118b4565b82611975565b610cc6576040517f08c379a0000000000000000000000000000000000000000000000000000000008152600401610cbd90612f4e565b60405180910390fd5b610cd1838383611a53565b505050565b600e8054610ce3906131ee565b80601f0160208091040260200160405190810160405280929190818152602001828054610d0f906131ee565b8015610d5c5780601f10610d3157610100808354040283529160200191610d5c565b820191906000526020600020905b815481529060010190602001808311610d3f57829003601f168201915b505050505081565b610d7f838383604051806020016040528060008152506113c7565b505050565b610d8c6118b4565b73ffffffffffffffffffffffffffffffffffffffff16610daa611184565b73ffffffffffffffffffffffffffffffffffffffff1614610e00576040517f08c379a0000000000000000000000000000000000000000000000000000000008152600401610df790612ece565b60405180910390fd5b80600c9080519060200190610e169291906123aa565b5050565b6000806002600084815260200190815260200160002060009054906101000a900473ffffffffffffffffffffffffffffffffffffffff169050600073ffffffffffffffffffffffffffffffffffffffff168173ffffffffffffffffffffffffffffffffffffffff161415610ec3576040517f08c379a0000000000000000000000000000000000000000000000000000000008152600401610eba90612e6e565b60405180910390fd5b80915050919050565b600a5481565b600c8054610edf906131ee565b80601f0160208091040260200160405190810160405280929190818152602001828054610f0b906131ee565b8015610f585780601f10610f2d57610100808354040283529160200191610f58565b820191906000526020600020905b815481529060010190602001808311610f3b57829003601f168201915b505050505081565b60008073ffffffffffffffffffffffffffffffffffffffff168273ffffffffffffffffffffffffffffffffffffffff161415610fd1576040517f08c379a0000000000000000000000000000000000000000000000000000000008152600401610fc890612e4e565b60405180910390fd5b600360008373ffffffffffffffffffffffffffffffffffffffff1673ffffffffffffffffffffffffffffffffffffffff168152602001908152602001600020549050919050565b6110206118b4565b73ffffffffffffffffffffffffffffffffffffffff1661103e611184565b73ffffffffffffffffffffffffffffffffffffffff1614611094576040517f08c379a000000000000000000000000000000000000000000000000000000000815260040161108b90612ece565b60405180910390fd5b61109e6000611caf565b565b60085481565b60006110b06118b4565b73ffffffffffffffffffffffffffffffffffffffff166110ce611184565b73ffffffffffffffffffffffffffffffffffffffff1614611124576040517f08c379a000000000000000000000000000000000000000000000000000000000815260040161111b90612ece565b60405180910390fd5b601360009054906101000a900460ff1615611174576040517f08c379a000000000000000000000000000000000000000000000000000000000815260040161116b90612f6e565b60405180910390fd5b81600a8190555060019050919050565b6000600660009054906101000a900473ffffffffffffffffffffffffffffffffffffffff16905090565b600b5481565b6060600180546111c3906131ee565b80601f01602080910402602001604051908101604052809291908181526020018280546111ef906131ee565b801561123c5780601f106112115761010080835404028352916020019161123c565b820191906000526020600020905b81548152906001019060200180831161121f57829003601f168201915b5050505050905090565b61124e6118b4565b73ffffffffffffffffffffffffffffffffffffffff168273ffffffffffffffffffffffffffffffffffffffff1614156112bc576040517f08c379a00000000000000000000000000000000000000000000000000000000081526004016112b390612dae565b60405180910390fd5b80600560006112c96118b4565b73ffffffffffffffffffffffffffffffffffffffff1673ffffffffffffffffffffffffffffffffffffffff16815260200190815260200160002060008473ffffffffffffffffffffffffffffffffffffffff1673ffffffffffffffffffffffffffffffffffffffff16815260200190815260200160002060006101000a81548160ff0219169083151502179055508173ffffffffffffffffffffffffffffffffffffffff166113766118b4565b73ffffffffffffffffffffffffffffffffffffffff167f17307eab39ab6107e8899845ad3d59bd9653f200f220920489ca2b5937696c31836040516113bb9190612cd1565b60405180910390a35050565b6113d86113d26118b4565b83611975565b611417576040517f08c379a000000000000000000000000000000000000000000000000000000000815260040161140e90612f4e565b60405180910390fd5b61142384848484611d75565b50505050565b606061143482611848565b611473576040517f08c379a000000000000000000000000000000000000000000000000000000000815260040161146a90612f0e565b60405180910390fd5b600061147d611dd1565b9050600081511161149d57604051806020016040528060008152506114c8565b806114a784611df1565b6040516020016114b8929190612bf8565b6040516020818303038152906040525b915050919050565b6000600560008473ffffffffffffffffffffffffffffffffffffffff1673ffffffffffffffffffffffffffffffffffffffff16815260200190815260200160002060008373ffffffffffffffffffffffffffffffffffffffff1673ffffffffffffffffffffffffffffffffffffffff16815260200190815260200160002060009054906101000a900460ff16905092915050565b600f8054611571906131ee565b80601f016020809104026020016040519081016040528092919081815260200182805461159d906131ee565b80156115ea5780601f106115bf576101008083540402835291602001916115ea565b820191906000526020600020905b8154815290600101906020018083116115cd57829003601f168201915b505050505081565b6115fa6118b4565b73ffffffffffffffffffffffffffffffffffffffff16611618611184565b73ffffffffffffffffffffffffffffffffffffffff161461166e576040517f08c379a000000000000000000000000000000000000000000000000000000000815260040161166590612ece565b60405180910390fd5b600073ffffffffffffffffffffffffffffffffffffffff168173ffffffffffffffffffffffffffffffffffffffff1614156116de576040517f08c379a00000000000000000000000000000000000000000000000000000000081526004016116d590612d2e565b60405180910390fd5b6116e781611caf565b50565b60095481565b60007f01ffc9a7000000000000000000000000000000000000000000000000000000007bffffffffffffffffffffffffffffffffffffffffffffffffffffffff1916827bffffffffffffffffffffffffffffffffffffffffffffffffffffffff1916149050919050565b600081600001549050919050565b60006117746007611f9e565b6000611780600761175a565b90506000814360014361179391906130fa565b40336040516020016117a89493929190612c1c565b6040516020818303038152906040528051906020012090508060126000848152602001908152602001600020819055508160116000838152602001908152602001600020819055506117fa8483611fb4565b818473ffffffffffffffffffffffffffffffffffffffff167f4410e1d7b44224caa1c0634ffc23edc40a52768e7380a919d386efa4569c658360405160405180910390a38192505050919050565b60008073ffffffffffffffffffffffffffffffffffffffff166002600084815260200190815260200160002060009054906101000a900473ffffffffffffffffffffffffffffffffffffffff1673ffffffffffffffffffffffffffffffffffffffff1614159050919050565b600033905090565b816004600083815260200190815260200160002060006101000a81548173ffffffffffffffffffffffffffffffffffffffff021916908373ffffffffffffffffffffffffffffffffffffffff160217905550808273ffffffffffffffffffffffffffffffffffffffff1661192f83610e1a565b73ffffffffffffffffffffffffffffffffffffffff167f8c5be1e5ebec7d5bd14f71427d1e84f3dd0314c0f7b2291e5b200ac8c7c3b92560405160405180910390a45050565b600061198082611848565b6119bf576040517f08c379a00000000000000000000000000000000000000000000000000000000081526004016119b690612dce565b60405180910390fd5b60006119ca83610e1a565b90508073ffffffffffffffffffffffffffffffffffffffff168473ffffffffffffffffffffffffffffffffffffffff161480611a3957508373ffffffffffffffffffffffffffffffffffffffff16611a2184610a12565b73ffffffffffffffffffffffffffffffffffffffff16145b80611a4a5750611a4981856114d0565b5b91505092915050565b8273ffffffffffffffffffffffffffffffffffffffff16611a7382610e1a565b73ffffffffffffffffffffffffffffffffffffffff1614611ac9576040517f08c379a0000000000000000000000000000000000000000000000000000000008152600401611ac090612eee565b60405180910390fd5b600073ffffffffffffffffffffffffffffffffffffffff168273ffffffffffffffffffffffffffffffffffffffff161415611b39576040517f08c379a0000000000000000000000000000000000000000000000000000000008152600401611b3090612d8e565b60405180910390fd5b611b44838383611fd2565b611b4f6000826118bc565b6001600360008573ffffffffffffffffffffffffffffffffffffffff1673ffffffffffffffffffffffffffffffffffffffff1681526020019081526020016000206000828254611b9f91906130fa565b925050819055506001600360008473ffffffffffffffffffffffffffffffffffffffff1673ffffffffffffffffffffffffffffffffffffffff1681526020019081526020016000206000828254611bf69190613073565b92505081905550816002600083815260200190815260200160002060006101000a81548173ffffffffffffffffffffffffffffffffffffffff021916908373ffffffffffffffffffffffffffffffffffffffff160217905550808273ffffffffffffffffffffffffffffffffffffffff168473ffffffffffffffffffffffffffffffffffffffff167fddf252ad1be2c89b69c2b068fc378daa952ba7f163c4a11628f55a4df523b3ef60405160405180910390a4505050565b6000600660009054906101000a900473ffffffffffffffffffffffffffffffffffffffff16905081600660006101000a81548173ffffffffffffffffffffffffffffffffffffffff021916908373ffffffffffffffffffffffffffffffffffffffff1602179055508173ffffffffffffffffffffffffffffffffffffffff168173ffffffffffffffffffffffffffffffffffffffff167f8be0079c531659141344cd1fd0a4f28419497f9722a3daafe3b4186f6b6457e060405160405180910390a35050565b611d80848484611a53565b611d8c84848484611fd7565b611dcb576040517f08c379a0000000000000000000000000000000000000000000000000000000008152600401611dc290612d0e565b60405180910390fd5b50505050565b60606040518060600160405280602781526020016139e560279139905090565b60606000821415611e39576040518060400160405280600181526020017f30000000000000000000000000000000000000000000000000000000000000008152509050611f99565b600082905060005b60008214611e6b578080611e5490613251565b915050600a82611e6491906130c9565b9150611e41565b60008167ffffffffffffffff811115611ead577f4e487b7100000000000000000000000000000000000000000000000000000000600052604160045260246000fd5b6040519080825280601f01601f191660200182016040528015611edf5781602001600182028036833780820191505090505b5090505b60008514611f9257600182611ef891906130fa565b9150600a85611f0791906132d2565b6030611f139190613073565b60f81b818381518110611f4f577f4e487b7100000000000000000000000000000000000000000000000000000000600052603260045260246000fd5b60200101907effffffffffffffffffffffffffffffffffffffffffffffffffffffffffffff1916908160001a905350600a85611f8b91906130c9565b9450611ee3565b8093505050505b919050565b6001816000016000828254019250508190555050565b611fce82826040518060200160405280600081525061216e565b5050565b505050565b6000611ff88473ffffffffffffffffffffffffffffffffffffffff166121c9565b15612161578373ffffffffffffffffffffffffffffffffffffffff1663150b7a026120216118b4565b8786866040518563ffffffff1660e01b81526004016120439493929190612c85565b602060405180830381600087803b15801561205d57600080fd5b505af192505050801561208e57506040513d601f19601f8201168201806040525081019061208b9190612794565b60015b612111573d80600081146120be576040519150601f19603f3d011682016040523d82523d6000602084013e6120c3565b606091505b50600081511415612109576040517f08c379a000000000000000000000000000000000000000000000000000000000815260040161210090612d0e565b60405180910390fd5b805181602001fd5b63150b7a0260e01b7bffffffffffffffffffffffffffffffffffffffffffffffffffffffff1916817bffffffffffffffffffffffffffffffffffffffffffffffffffffffff191614915050612166565b600190505b949350505050565b61217883836121dc565b6121856000848484611fd7565b6121c4576040517f08c379a00000000000000000000000000000000000000000000000000000000081526004016121bb90612d0e565b60405180910390fd5b505050565b600080823b905060008111915050919050565b600073ffffffffffffffffffffffffffffffffffffffff168273ffffffffffffffffffffffffffffffffffffffff16141561224c576040517f08c379a000000000000000000000000000000000000000000000000000000000815260040161224390612e8e565b60405180910390fd5b61225581611848565b15612295576040517f08c379a000000000000000000000000000000000000000000000000000000000815260040161228c90612d4e565b60405180910390fd5b6122a160008383611fd2565b6001600360008473ffffffffffffffffffffffffffffffffffffffff1673ffffffffffffffffffffffffffffffffffffffff16815260200190815260200160002060008282546122f19190613073565b92505081905550816002600083815260200190815260200160002060006101000a81548173ffffffffffffffffffffffffffffffffffffffff021916908373ffffffffffffffffffffffffffffffffffffffff160217905550808273ffffffffffffffffffffffffffffffffffffffff16600073ffffffffffffffffffffffffffffffffffffffff167fddf252ad1be2c89b69c2b068fc378daa952ba7f163c4a11628f55a4df523b3ef60405160405180910390a45050565b8280546123b6906131ee565b90600052602060002090601f0160209004810192826123d8576000855561241f565b82601f106123f157805160ff191683800117855561241f565b8280016001018555821561241f579182015b8281111561241e578251825591602001919060010190612403565b5b50905061242c9190612430565b5090565b5b80821115612449576000816000905550600101612431565b5090565b600061246061245b84612fce565b612fa9565b90508281526020810184848401111561247857600080fd5b6124838482856131ac565b509392505050565b600061249e61249984612fff565b612fa9565b9050828152602081018484840111156124b657600080fd5b6124c18482856131ac565b509392505050565b6000813590506124d881613971565b92915050565b6000813590506124ed81613988565b92915050565b6000813590506125028161399f565b92915050565b600081359050612517816139b6565b92915050565b60008151905061252c816139b6565b92915050565b600082601f83011261254357600080fd5b813561255384826020860161244d565b91505092915050565b600082601f83011261256d57600080fd5b813561257d84826020860161248b565b91505092915050565b600081359050612595816139cd565b92915050565b6000602082840312156125ad57600080fd5b60006125bb848285016124c9565b91505092915050565b600080604083850312156125d757600080fd5b60006125e5858286016124c9565b92505060206125f6858286016124c9565b9150509250929050565b60008060006060848603121561261557600080fd5b6000612623868287016124c9565b9350506020612634868287016124c9565b925050604061264586828701612586565b9150509250925092565b6000806000806080858703121561266557600080fd5b6000612673878288016124c9565b9450506020612684878288016124c9565b935050604061269587828801612586565b925050606085013567ffffffffffffffff8111156126b257600080fd5b6126be87828801612532565b91505092959194509250565b600080604083850312156126dd57600080fd5b60006126eb858286016124c9565b92505060206126fc858286016124de565b9150509250929050565b6000806040838503121561271957600080fd5b6000612727858286016124c9565b925050602061273885828601612586565b9150509250929050565b60006020828403121561275457600080fd5b6000612762848285016124f3565b91505092915050565b60006020828403121561277d57600080fd5b600061278b84828501612508565b91505092915050565b6000602082840312156127a657600080fd5b60006127b48482850161251d565b91505092915050565b6000602082840312156127cf57600080fd5b600082013567ffffffffffffffff8111156127e957600080fd5b6127f58482850161255c565b91505092915050565b60006020828403121561281057600080fd5b600061281e84828501612586565b91505092915050565b6128308161312e565b82525050565b6128476128428261312e565b61329a565b82525050565b61285681613140565b82525050565b61286d6128688261314c565b6132ac565b82525050565b600061287e82613030565b6128888185613046565b93506128988185602086016131bb565b6128a1816133bf565b840191505092915050565b60006128b78261303b565b6128c18185613057565b93506128d18185602086016131bb565b6128da816133bf565b840191505092915050565b60006128f08261303b565b6128fa8185613068565b935061290a8185602086016131bb565b80840191505092915050565b6000612923603283613057565b915061292e826133dd565b604082019050919050565b6000612946602683613057565b91506129518261342c565b604082019050919050565b6000612969601c83613057565b91506129748261347b565b602082019050919050565b600061298c602983613057565b9150612997826134a4565b604082019050919050565b60006129af602483613057565b91506129ba826134f3565b604082019050919050565b60006129d2601983613057565b91506129dd82613542565b602082019050919050565b60006129f5602c83613057565b9150612a008261356b565b604082019050919050565b6000612a18603a83613057565b9150612a23826135ba565b604082019050919050565b6000612a3b602b83613057565b9150612a4682613609565b604082019050919050565b6000612a5e603883613057565b9150612a6982613658565b604082019050919050565b6000612a81602a83613057565b9150612a8c826136a7565b604082019050919050565b6000612aa4602983613057565b9150612aaf826136f6565b604082019050919050565b6000612ac7602083613057565b9150612ad282613745565b602082019050919050565b6000612aea602c83613057565b9150612af58261376e565b604082019050919050565b6000612b0d602083613057565b9150612b18826137bd565b602082019050919050565b6000612b30602983613057565b9150612b3b826137e6565b604082019050919050565b6000612b53602f83613057565b9150612b5e82613835565b604082019050919050565b6000612b76602183613057565b9150612b8182613884565b604082019050919050565b6000612b99603183613057565b9150612ba4826138d3565b604082019050919050565b6000612bbc602283613057565b9150612bc782613922565b604082019050919050565b612bdb816131a2565b82525050565b612bf2612bed826131a2565b6132c8565b82525050565b6000612c0482856128e5565b9150612c1082846128e5565b91508190509392505050565b6000612c288287612be1565b602082019150612c388286612be1565b602082019150612c48828561285c565b602082019150612c588284612836565b60148201915081905095945050505050565b6000602082019050612c7f6000830184612827565b92915050565b6000608082019050612c9a6000830187612827565b612ca76020830186612827565b612cb46040830185612bd2565b8181036060830152612cc68184612873565b905095945050505050565b6000602082019050612ce6600083018461284d565b92915050565b60006020820190508181036000830152612d0681846128ac565b905092915050565b60006020820190508181036000830152612d2781612916565b9050919050565b60006020820190508181036000830152612d4781612939565b9050919050565b60006020820190508181036000830152612d678161295c565b9050919050565b60006020820190508181036000830152612d878161297f565b9050919050565b60006020820190508181036000830152612da7816129a2565b9050919050565b60006020820190508181036000830152612dc7816129c5565b9050919050565b60006020820190508181036000830152612de7816129e8565b9050919050565b60006020820190508181036000830152612e0781612a0b565b9050919050565b60006020820190508181036000830152612e2781612a2e565b9050919050565b60006020820190508181036000830152612e4781612a51565b9050919050565b60006020820190508181036000830152612e6781612a74565b9050919050565b60006020820190508181036000830152612e8781612a97565b9050919050565b60006020820190508181036000830152612ea781612aba565b9050919050565b60006020820190508181036000830152612ec781612add565b9050919050565b60006020820190508181036000830152612ee781612b00565b9050919050565b60006020820190508181036000830152612f0781612b23565b9050919050565b60006020820190508181036000830152612f2781612b46565b9050919050565b60006020820190508181036000830152612f4781612b69565b9050919050565b60006020820190508181036000830152612f6781612b8c565b9050919050565b60006020820190508181036000830152612f8781612baf565b9050919050565b6000602082019050612fa36000830184612bd2565b92915050565b6000612fb3612fc4565b9050612fbf8282613220565b919050565b6000604051905090565b600067ffffffffffffffff821115612fe957612fe8613390565b5b612ff2826133bf565b9050602081019050919050565b600067ffffffffffffffff82111561301a57613019613390565b5b613023826133bf565b9050602081019050919050565b600081519050919050565b600081519050919050565b600082825260208201905092915050565b600082825260208201905092915050565b600081905092915050565b600061307e826131a2565b9150613089836131a2565b9250827fffffffffffffffffffffffffffffffffffffffffffffffffffffffffffffffff038211156130be576130bd613303565b5b828201905092915050565b60006130d4826131a2565b91506130df836131a2565b9250826130ef576130ee613332565b5b828204905092915050565b6000613105826131a2565b9150613110836131a2565b92508282101561312357613122613303565b5b828203905092915050565b600061313982613182565b9050919050565b60008115159050919050565b6000819050919050565b60007fffffffff0000000000000000000000000000000000000000000000000000000082169050919050565b600073ffffffffffffffffffffffffffffffffffffffff82169050919050565b6000819050919050565b82818337600083830152505050565b60005b838110156131d95780820151818401526020810190506131be565b838111156131e8576000848401525b50505050565b6000600282049050600182168061320657607f821691505b6020821081141561321a57613219613361565b5b50919050565b613229826133bf565b810181811067ffffffffffffffff8211171561324857613247613390565b5b80604052505050565b600061325c826131a2565b91507fffffffffffffffffffffffffffffffffffffffffffffffffffffffffffffffff82141561328f5761328e613303565b5b600182019050919050565b60006132a5826132b6565b9050919050565b6000819050919050565b60006132c1826133d0565b9050919050565b6000819050919050565b60006132dd826131a2565b91506132e8836131a2565b9250826132f8576132f7613332565b5b828206905092915050565b7f4e487b7100000000000000000000000000000000000000000000000000000000600052601160045260246000fd5b7f4e487b7100000000000000000000000000000000000000000000000000000000600052601260045260246000fd5b7f4e487b7100000000000000000000000000000000000000000000000000000000600052602260045260246000fd5b7f4e487b7100000000000000000000000000000000000000000000000000000000600052604160045260246000fd5b6000601f19601f8301169050919050565b60008160601b9050919050565b7f4552433732313a207472616e7366657220746f206e6f6e20455243373231526560008201527f63656976657220696d706c656d656e7465720000000000000000000000000000602082015250565b7f4f776e61626c653a206e6577206f776e657220697320746865207a65726f206160008201527f6464726573730000000000000000000000000000000000000000000000000000602082015250565b7f4552433732313a20746f6b656e20616c7265616479206d696e74656400000000600082015250565b7f436f6e7472616374206d757374206265207374617274656420696e206f72646560008201527f7220746f206170652e0000000000000000000000000000000000000000000000602082015250565b7f4552433732313a207472616e7366657220746f20746865207a65726f2061646460008201527f7265737300000000000000000000000000000000000000000000000000000000602082015250565b7f4552433732313a20617070726f766520746f2063616c6c657200000000000000600082015250565b7f4552433732313a206f70657261746f7220717565727920666f72206e6f6e657860008201527f697374656e7420746f6b656e0000000000000000000000000000000000000000602082015250565b7f56616c7565206572726f722e20506c656173652074727920746f20617065206160008201527f6761696e206166746572207468696e6b696e67206f6e2069742e000000000000602082015250565b7f4578636565647320746f74616c206b61696a752077696c6c696e6720746f206260008201527f652073756d6d6f6e65642e000000000000000000000000000000000000000000602082015250565b7f4552433732313a20617070726f76652063616c6c6572206973206e6f74206f7760008201527f6e6572206e6f7220617070726f76656420666f7220616c6c0000000000000000602082015250565b7f4552433732313a2062616c616e636520717565727920666f7220746865207a6560008201527f726f206164647265737300000000000000000000000000000000000000000000602082015250565b7f4552433732313a206f776e657220717565727920666f72206e6f6e657869737460008201527f656e7420746f6b656e0000000000000000000000000000000000000000000000602082015250565b7f4552433732313a206d696e7420746f20746865207a65726f2061646472657373600082015250565b7f4552433732313a20617070726f76656420717565727920666f72206e6f6e657860008201527f697374656e7420746f6b656e0000000000000000000000000000000000000000602082015250565b7f4f776e61626c653a2063616c6c6572206973206e6f7420746865206f776e6572600082015250565b7f4552433732313a207472616e73666572206f6620746f6b656e2074686174206960008201527f73206e6f74206f776e0000000000000000000000000000000000000000000000602082015250565b7f4552433732314d657461646174613a2055524920717565727920666f72206e6f60008201527f6e6578697374656e7420746f6b656e0000000000000000000000000000000000602082015250565b7f4552433732313a20617070726f76616c20746f2063757272656e74206f776e6560008201527f7200000000000000000000000000000000000000000000000000000000000000602082015250565b7f4552433732313a207472616e736665722063616c6c6572206973206e6f74206f60008201527f776e6572206e6f7220617070726f766564000000000000000000000000000000602082015250565b7f436f6e7472616374206e6565647320746f2062652073746f707065642066726560008201527f6e2e000000000000000000000000000000000000000000000000000000000000602082015250565b61397a8161312e565b811461398557600080fd5b50565b61399181613140565b811461399c57600080fd5b50565b6139a88161314c565b81146139b357600080fd5b50565b6139bf81613156565b81146139ca57600080fd5b50565b6139d6816131a2565b81146139e157600080fd5b5056fe68747470733a2f2f66726f7a656e2d637261672d39323234372e6865726f6b756170702e636f6da2646970667358221220be9559ca921f3bce04b903e4d8f2b68f47ee15ed1be058df5fe5853d6c2db9e864736f6c63430008040033",
  "linkReferences": {},
  "deployedLinkReferences": {}
}