{
  "_format": "hh-sol-artifact-1",
  "contractName": "Stems",
  "sourceName": "contracts/Stems.sol",
  "abi": [
    {
      "inputs": [
        {
          "internalType": "uint256",
          "name": "_stemPriceInWei",
          "type": "uint256"
        },
        {
          "internalType": "uint256",
          "name": "_maxStems",
          "type": "uint256"
        }
      ],
      "stateMutability": "nonpayable",
      "type": "constructor"
    },
    {
      "anonymous": false,
      "inputs": [
        {
          "indexed": true,
          "internalType": "address",
          "name": "owner",
          "type": "address"
        },
        {
          "indexed": true,
          "internalType": "address",
          "name": "approved",
          "type": "address"
        },
        {
          "indexed": true,
          "internalType": "uint256",
          "name": "tokenId",
          "type": "uint256"
        }
      ],
      "name": "Approval",
      "type": "event"
    },
    {
      "anonymous": false,
      "inputs": [
        {
          "indexed": true,
          "internalType": "address",
          "name": "owner",
          "type": "address"
        },
        {
          "indexed": true,
          "internalType": "address",
          "name": "operator",
          "type": "address"
        },
        {
          "indexed": false,
          "internalType": "bool",
          "name": "approved",
          "type": "bool"
        }
      ],
      "name": "ApprovalForAll",
      "type": "event"
    },
    {
      "anonymous": false,
      "inputs": [
        {
          "indexed": true,
          "internalType": "address",
          "name": "_forager",
          "type": "address"
        },
        {
          "indexed": true,
          "internalType": "uint256",
          "name": "_tokenId",
          "type": "uint256"
        }
      ],
      "name": "ForagedStem",
      "type": "event"
    },
    {
      "anonymous": false,
      "inputs": [
        {
          "indexed": true,
          "internalType": "address",
          "name": "previousOwner",
          "type": "address"
        },
        {
          "indexed": true,
          "internalType": "address",
          "name": "newOwner",
          "type": "address"
        }
      ],
      "name": "OwnershipTransferred",
      "type": "event"
    },
    {
      "anonymous": false,
      "inputs": [
        {
          "indexed": true,
          "internalType": "address",
          "name": "from",
          "type": "address"
        },
        {
          "indexed": true,
          "internalType": "address",
          "name": "to",
          "type": "address"
        },
        {
          "indexed": true,
          "internalType": "uint256",
          "name": "tokenId",
          "type": "uint256"
        }
      ],
      "name": "Transfer",
      "type": "event"
    },
    {
      "inputs": [
        {
          "internalType": "uint256",
          "name": "",
          "type": "uint256"
        }
      ],
      "name": "_tokenURIs",
      "outputs": [
        {
          "internalType": "string",
          "name": "",
          "type": "string"
        }
      ],
      "stateMutability": "view",
      "type": "function"
    },
    {
      "inputs": [
        {
          "internalType": "address",
          "name": "to",
          "type": "address"
        },
        {
          "internalType": "uint256",
          "name": "tokenId",
          "type": "uint256"
        }
      ],
      "name": "approve",
      "outputs": [],
      "stateMutability": "nonpayable",
      "type": "function"
    },
    {
      "inputs": [
        {
          "internalType": "address",
          "name": "owner",
          "type": "address"
        }
      ],
      "name": "balanceOf",
      "outputs": [
        {
          "internalType": "uint256",
          "name": "",
          "type": "uint256"
        }
      ],
      "stateMutability": "view",
      "type": "function"
    },
    {
      "inputs": [],
      "name": "baseIpfs",
      "outputs": [
        {
          "internalType": "string",
          "name": "",
          "type": "string"
        }
      ],
      "stateMutability": "view",
      "type": "function"
    },
    {
      "inputs": [],
      "name": "baseURI",
      "outputs": [
        {
          "internalType": "string",
          "name": "",
          "type": "string"
        }
      ],
      "stateMutability": "view",
      "type": "function"
    },
    {
      "inputs": [
        {
          "internalType": "uint256",
          "name": "tokenId",
          "type": "uint256"
        }
      ],
      "name": "getApproved",
      "outputs": [
        {
          "internalType": "address",
          "name": "",
          "type": "address"
        }
      ],
      "stateMutability": "view",
      "type": "function"
    },
    {
      "inputs": [
        {
          "internalType": "bytes32",
          "name": "",
          "type": "bytes32"
        }
      ],
      "name": "hashToId",
      "outputs": [
        {
          "internalType": "uint256",
          "name": "",
          "type": "uint256"
        }
      ],
      "stateMutability": "view",
      "type": "function"
    },
    {
      "inputs": [
        {
          "internalType": "address",
          "name": "owner",
          "type": "address"
        },
        {
          "internalType": "address",
          "name": "operator",
          "type": "address"
        }
      ],
      "name": "isApprovedForAll",
      "outputs": [
        {
          "internalType": "bool",
          "name": "",
          "type": "bool"
        }
      ],
      "stateMutability": "view",
      "type": "function"
    },
    {
      "inputs": [],
      "name": "lastTokenId",
      "outputs": [
        {
          "internalType": "uint256",
          "name": "",
          "type": "uint256"
        }
      ],
      "stateMutability": "view",
      "type": "function"
    },
    {
      "inputs": [],
      "name": "maxStems",
      "outputs": [
        {
          "internalType": "uint256",
          "name": "",
          "type": "uint256"
        }
      ],
      "stateMutability": "view",
      "type": "function"
    },
    {
      "inputs": [],
      "name": "mintStem",
      "outputs": [
        {
          "internalType": "uint256",
          "name": "_tokenId",
          "type": "uint256"
        }
      ],
      "stateMutability": "payable",
      "type": "function"
    },
    {
      "inputs": [],
      "name": "name",
      "outputs": [
        {
          "internalType": "string",
          "name": "",
          "type": "string"
        }
      ],
      "stateMutability": "view",
      "type": "function"
    },
    {
      "inputs": [],
      "name": "nextTokenId",
      "outputs": [
        {
          "internalType": "uint256",
          "name": "",
          "type": "uint256"
        }
      ],
      "stateMutability": "view",
      "type": "function"
    },
    {
      "inputs": [],
      "name": "on_off_button",
      "outputs": [
        {
          "internalType": "bool",
          "name": "",
          "type": "bool"
        }
      ],
      "stateMutability": "nonpayable",
      "type": "function"
    },
    {
      "inputs": [],
      "name": "owner",
      "outputs": [
        {
          "internalType": "address",
          "name": "",
          "type": "address"
        }
      ],
      "stateMutability": "view",
      "type": "function"
    },
    {
      "inputs": [
        {
          "internalType": "uint256",
          "name": "tokenId",
          "type": "uint256"
        }
      ],
      "name": "ownerOf",
      "outputs": [
        {
          "internalType": "address",
          "name": "",
          "type": "address"
        }
      ],
      "stateMutability": "view",
      "type": "function"
    },
    {
      "inputs": [],
      "name": "renounceOwnership",
      "outputs": [],
      "stateMutability": "nonpayable",
      "type": "function"
    },
    {
      "inputs": [
        {
          "internalType": "address",
          "name": "from",
          "type": "address"
        },
        {
          "internalType": "address",
          "name": "to",
          "type": "address"
        },
        {
          "internalType": "uint256",
          "name": "tokenId",
          "type": "uint256"
        }
      ],
      "name": "safeTransferFrom",
      "outputs": [],
      "stateMutability": "nonpayable",
      "type": "function"
    },
    {
      "inputs": [
        {
          "internalType": "address",
          "name": "from",
          "type": "address"
        },
        {
          "internalType": "address",
          "name": "to",
          "type": "address"
        },
        {
          "internalType": "uint256",
          "name": "tokenId",
          "type": "uint256"
        },
        {
          "internalType": "bytes",
          "name": "_data",
          "type": "bytes"
        }
      ],
      "name": "safeTransferFrom",
      "outputs": [],
      "stateMutability": "nonpayable",
      "type": "function"
    },
    {
      "inputs": [],
      "name": "script",
      "outputs": [
        {
          "internalType": "string",
          "name": "",
          "type": "string"
        }
      ],
      "stateMutability": "view",
      "type": "function"
    },
    {
      "inputs": [],
      "name": "scriptJson",
      "outputs": [
        {
          "internalType": "string",
          "name": "",
          "type": "string"
        }
      ],
      "stateMutability": "view",
      "type": "function"
    },
    {
      "inputs": [
        {
          "internalType": "address",
          "name": "operator",
          "type": "address"
        },
        {
          "internalType": "bool",
          "name": "approved",
          "type": "bool"
        }
      ],
      "name": "setApprovalForAll",
      "outputs": [],
      "stateMutability": "nonpayable",
      "type": "function"
    },
    {
      "inputs": [],
      "name": "stemPriceInWei",
      "outputs": [
        {
          "internalType": "uint256",
          "name": "",
          "type": "uint256"
        }
      ],
      "stateMutability": "view",
      "type": "function"
    },
    {
      "inputs": [
        {
          "internalType": "bytes4",
          "name": "interfaceId",
          "type": "bytes4"
        }
      ],
      "name": "supportsInterface",
      "outputs": [
        {
          "internalType": "bool",
          "name": "",
          "type": "bool"
        }
      ],
      "stateMutability": "view",
      "type": "function"
    },
    {
      "inputs": [],
      "name": "symbol",
      "outputs": [
        {
          "internalType": "string",
          "name": "",
          "type": "string"
        }
      ],
      "stateMutability": "view",
      "type": "function"
    },
    {
      "inputs": [
        {
          "internalType": "uint256",
          "name": "tokenId",
          "type": "uint256"
        }
      ],
      "name": "tokenURI",
      "outputs": [
        {
          "internalType": "string",
          "name": "",
          "type": "string"
        }
      ],
      "stateMutability": "view",
      "type": "function"
    },
    {
      "inputs": [
        {
          "internalType": "address",
          "name": "from",
          "type": "address"
        },
        {
          "internalType": "address",
          "name": "to",
          "type": "address"
        },
        {
          "internalType": "uint256",
          "name": "tokenId",
          "type": "uint256"
        }
      ],
      "name": "transferFrom",
      "outputs": [],
      "stateMutability": "nonpayable",
      "type": "function"
    },
    {
      "inputs": [
        {
          "internalType": "address",
          "name": "newOwner",
          "type": "address"
        }
      ],
      "name": "transferOwnership",
      "outputs": [],
      "stateMutability": "nonpayable",
      "type": "function"
    },
    {
      "inputs": [
        {
          "internalType": "uint256",
          "name": "_stemPriceInWei",
          "type": "uint256"
        }
      ],
      "name": "updatePrice",
      "outputs": [
        {
          "internalType": "bool",
          "name": "",
          "type": "bool"
        }
      ],
      "stateMutability": "nonpayable",
      "type": "function"
    }
  ],
  "bytecode": "0x60806040523480156200001157600080fd5b5060405162003fe938038062003fe98339818101604052810190620000379190620002a2565b6040518060400160405280600881526020017f616e645374656d730000000000000000000000000000000000000000000000008152506040518060400160405280600581526020017f5354454d530000000000000000000000000000000000000000000000000000008152508160009080519060200190620000bb929190620001db565b508060019080519060200190620000d4929190620001db565b505050620000f7620000eb6200010d60201b60201c565b6200011560201b60201c565b80600c8190555081600b8190555050506200036c565b600033905090565b6000600660009054906101000a900473ffffffffffffffffffffffffffffffffffffffff16905081600660006101000a81548173ffffffffffffffffffffffffffffffffffffffff021916908373ffffffffffffffffffffffffffffffffffffffff1602179055508173ffffffffffffffffffffffffffffffffffffffff168173ffffffffffffffffffffffffffffffffffffffff167f8be0079c531659141344cd1fd0a4f28419497f9722a3daafe3b4186f6b6457e060405160405180910390a35050565b828054620001e990620002ed565b90600052602060002090601f0160209004810192826200020d576000855562000259565b82601f106200022857805160ff191683800117855562000259565b8280016001018555821562000259579182015b82811115620002585782518255916020019190600101906200023b565b5b5090506200026891906200026c565b5090565b5b80821115620002875760008160009055506001016200026d565b5090565b6000815190506200029c8162000352565b92915050565b60008060408385031215620002b657600080fd5b6000620002c6858286016200028b565b9250506020620002d9858286016200028b565b9150509250929050565b6000819050919050565b600060028204905060018216806200030657607f821691505b602082108114156200031d576200031c62000323565b5b50919050565b7f4e487b7100000000000000000000000000000000000000000000000000000000600052602260045260246000fd5b6200035d81620002e3565b81146200036957600080fd5b50565b613c6d806200037c6000396000f3fe6080604052600436106101c25760003560e01c80636c0360eb116100f757806395d89b4111610095578063e985e9c511610064578063e985e9c51461065f578063ebe9eb9f1461069c578063f2fde38b146106c7578063f84ddf0b146106f0576101c2565b806395d89b41146105a5578063a22cb465146105d0578063b88d4fde146105f9578063c87b56dd14610622576101c2565b806375794a3c116100d157806375794a3c146104e75780638d6cc56d146105125780638da5cb5b1461054f57806395b5ba851461057a576101c2565b80636c0360eb1461046857806370a0823114610493578063715018a6146104d0576101c2565b80630bb78ec11161016457806338d96b4f1161013e57806338d96b4f146103ac57806342842e0e146103d75780636352211e146104005780636695b5921461043d576101c2565b80630bb78ec11461031b5780631c05207b1461035857806323b872dd14610383576101c2565b806306fdde03116101a057806306fdde031461024d578063081812fc14610278578063095ea7b3146102b5578063095f0773146102de576101c2565b806301ffc9a7146101c757806304691e111461020457806305d703311461022f575b600080fd5b3480156101d357600080fd5b506101ee60048036038101906101e9919061290a565b61071b565b6040516101fb9190612e75565b60405180910390f35b34801561021057600080fd5b506102196107fd565b6040516102269190612e90565b60405180910390f35b61023761088b565b6040516102449190613172565b60405180910390f35b34801561025957600080fd5b50610262610994565b60405161026f9190612e90565b60405180910390f35b34801561028457600080fd5b5061029f600480360381019061029a919061295c565b610a26565b6040516102ac9190612e0e565b60405180910390f35b3480156102c157600080fd5b506102dc60048036038101906102d791906128a5565b610aab565b005b3480156102ea57600080fd5b50610305600480360381019061030091906128e1565b610bc3565b6040516103129190613172565b60405180910390f35b34801561032757600080fd5b50610342600480360381019061033d919061295c565b610bdb565b60405161034f9190612e90565b60405180910390f35b34801561036457600080fd5b5061036d610c7b565b60405161037a9190612e75565b60405180910390f35b34801561038f57600080fd5b506103aa60048036038101906103a5919061279f565b610d2a565b005b3480156103b857600080fd5b506103c1610d8a565b6040516103ce9190612e90565b60405180910390f35b3480156103e357600080fd5b506103fe60048036038101906103f9919061279f565b610e18565b005b34801561040c57600080fd5b506104276004803603810190610422919061295c565b610e38565b6040516104349190612e0e565b60405180910390f35b34801561044957600080fd5b50610452610eea565b60405161045f9190613172565b60405180910390f35b34801561047457600080fd5b5061047d610ef0565b60405161048a9190612e90565b60405180910390f35b34801561049f57600080fd5b506104ba60048036038101906104b5919061273a565b610f7e565b6040516104c79190613172565b60405180910390f35b3480156104dc57600080fd5b506104e5611036565b005b3480156104f357600080fd5b506104fc6110be565b6040516105099190613172565b60405180910390f35b34801561051e57600080fd5b506105396004803603810190610534919061295c565b6110c4565b6040516105469190612e75565b60405180910390f35b34801561055b57600080fd5b506105646111a2565b6040516105719190612e0e565b60405180910390f35b34801561058657600080fd5b5061058f6111cc565b60405161059c9190613172565b60405180910390f35b3480156105b157600080fd5b506105ba6111d2565b6040516105c79190612e90565b60405180910390f35b3480156105dc57600080fd5b506105f760048036038101906105f29190612869565b611264565b005b34801561060557600080fd5b50610620600480360381019061061b91906127ee565b6113e5565b005b34801561062e57600080fd5b506106496004803603810190610644919061295c565b611447565b6040516106569190612e90565b60405180910390f35b34801561066b57600080fd5b5061068660048036038101906106819190612763565b611459565b6040516106939190612e75565b60405180910390f35b3480156106a857600080fd5b506106b16114ed565b6040516106be9190612e90565b60405180910390f35b3480156106d357600080fd5b506106ee60048036038101906106e9919061273a565b61157b565b005b3480156106fc57600080fd5b50610705611673565b6040516107129190613172565b60405180910390f35b60007f80ac58cd000000000000000000000000000000000000000000000000000000007bffffffffffffffffffffffffffffffffffffffffffffffffffffffff1916827bffffffffffffffffffffffffffffffffffffffffffffffffffffffff191614806107e657507f5b5e139f000000000000000000000000000000000000000000000000000000007bffffffffffffffffffffffffffffffffffffffffffffffffffffffff1916827bffffffffffffffffffffffffffffffffffffffffffffffffffffffff1916145b806107f657506107f582611679565b5b9050919050565b600e805461080a906133a1565b80601f0160208091040260200160405190810160405280929190818152602001828054610836906133a1565b80156108835780601f1061085857610100808354040283529160200191610883565b820191906000526020600020905b81548152906001019060200180831161086657829003601f168201915b505050505081565b6000601560009054906101000a900460ff166108dc576040517f08c379a00000000000000000000000000000000000000000000000000000000081526004016108d390612f12565b60405180910390fd5b600c5460016108eb60086116e3565b6108f59190613226565b1115610936576040517f08c379a000000000000000000000000000000000000000000000000000000000815260040161092d906130f2565b60405180910390fd5b600b54341461097a576040517f08c379a000000000000000000000000000000000000000000000000000000000815260040161097190612f92565b60405180910390fd5b6000339050600061098a826116f1565b9050809250505090565b6060600080546109a3906133a1565b80601f01602080910402602001604051908101604052809291908181526020018280546109cf906133a1565b8015610a1c5780601f106109f157610100808354040283529160200191610a1c565b820191906000526020600020905b8154815290600101906020018083116109ff57829003601f168201915b5050505050905090565b6000610a31826117e2565b610a70576040517f08c379a0000000000000000000000000000000000000000000000000000000008152600401610a6790613072565b60405180910390fd5b6004600083815260200190815260200160002060009054906101000a900473ffffffffffffffffffffffffffffffffffffffff169050919050565b6000610ab682610e38565b90508073ffffffffffffffffffffffffffffffffffffffff168373ffffffffffffffffffffffffffffffffffffffff161415610b27576040517f08c379a0000000000000000000000000000000000000000000000000000000008152600401610b1e90613112565b60405180910390fd5b8073ffffffffffffffffffffffffffffffffffffffff16610b4661184e565b73ffffffffffffffffffffffffffffffffffffffff161480610b755750610b7481610b6f61184e565b611459565b5b610bb4576040517f08c379a0000000000000000000000000000000000000000000000000000000008152600401610bab90612fb2565b60405180910390fd5b610bbe8383611856565b505050565b60126020528060005260406000206000915090505481565b60146020528060005260406000206000915090508054610bfa906133a1565b80601f0160208091040260200160405190810160405280929190818152602001828054610c26906133a1565b8015610c735780601f10610c4857610100808354040283529160200191610c73565b820191906000526020600020905b815481529060010190602001808311610c5657829003601f168201915b505050505081565b6000610c8561184e565b73ffffffffffffffffffffffffffffffffffffffff16610ca36111a2565b73ffffffffffffffffffffffffffffffffffffffff1614610cf9576040517f08c379a0000000000000000000000000000000000000000000000000000000008152600401610cf090613092565b60405180910390fd5b601560009054906101000a900460ff1615601560006101000a81548160ff0219169083151502179055506001905090565b610d3b610d3561184e565b8261190f565b610d7a576040517f08c379a0000000000000000000000000000000000000000000000000000000008152600401610d7190613132565b60405180910390fd5b610d858383836119ed565b505050565b600f8054610d97906133a1565b80601f0160208091040260200160405190810160405280929190818152602001828054610dc3906133a1565b8015610e105780601f10610de557610100808354040283529160200191610e10565b820191906000526020600020905b815481529060010190602001808311610df357829003601f168201915b505050505081565b610e33838383604051806020016040528060008152506113e5565b505050565b6000806002600084815260200190815260200160002060009054906101000a900473ffffffffffffffffffffffffffffffffffffffff169050600073ffffffffffffffffffffffffffffffffffffffff168173ffffffffffffffffffffffffffffffffffffffff161415610ee1576040517f08c379a0000000000000000000000000000000000000000000000000000000008152600401610ed890612ff2565b60405180910390fd5b80915050919050565b600b5481565b600d8054610efd906133a1565b80601f0160208091040260200160405190810160405280929190818152602001828054610f29906133a1565b8015610f765780601f10610f4b57610100808354040283529160200191610f76565b820191906000526020600020905b815481529060010190602001808311610f5957829003601f168201915b505050505081565b60008073ffffffffffffffffffffffffffffffffffffffff168273ffffffffffffffffffffffffffffffffffffffff161415610fef576040517f08c379a0000000000000000000000000000000000000000000000000000000008152600401610fe690612fd2565b60405180910390fd5b600360008373ffffffffffffffffffffffffffffffffffffffff1673ffffffffffffffffffffffffffffffffffffffff168152602001908152602001600020549050919050565b61103e61184e565b73ffffffffffffffffffffffffffffffffffffffff1661105c6111a2565b73ffffffffffffffffffffffffffffffffffffffff16146110b2576040517f08c379a00000000000000000000000000000000000000000000000000000000081526004016110a990613092565b60405180910390fd5b6110bc6000611c49565b565b60095481565b60006110ce61184e565b73ffffffffffffffffffffffffffffffffffffffff166110ec6111a2565b73ffffffffffffffffffffffffffffffffffffffff1614611142576040517f08c379a000000000000000000000000000000000000000000000000000000000815260040161113990613092565b60405180910390fd5b601560009054906101000a900460ff1615611192576040517f08c379a000000000000000000000000000000000000000000000000000000000815260040161118990613152565b60405180910390fd5b81600b8190555060019050919050565b6000600660009054906101000a900473ffffffffffffffffffffffffffffffffffffffff16905090565b600c5481565b6060600180546111e1906133a1565b80601f016020809104026020016040519081016040528092919081815260200182805461120d906133a1565b801561125a5780601f1061122f5761010080835404028352916020019161125a565b820191906000526020600020905b81548152906001019060200180831161123d57829003601f168201915b5050505050905090565b61126c61184e565b73ffffffffffffffffffffffffffffffffffffffff168273ffffffffffffffffffffffffffffffffffffffff1614156112da576040517f08c379a00000000000000000000000000000000000000000000000000000000081526004016112d190612f52565b60405180910390fd5b80600560006112e761184e565b73ffffffffffffffffffffffffffffffffffffffff1673ffffffffffffffffffffffffffffffffffffffff16815260200190815260200160002060008473ffffffffffffffffffffffffffffffffffffffff1673ffffffffffffffffffffffffffffffffffffffff16815260200190815260200160002060006101000a81548160ff0219169083151502179055508173ffffffffffffffffffffffffffffffffffffffff1661139461184e565b73ffffffffffffffffffffffffffffffffffffffff167f17307eab39ab6107e8899845ad3d59bd9653f200f220920489ca2b5937696c31836040516113d99190612e75565b60405180910390a35050565b6113f66113f061184e565b8361190f565b611435576040517f08c379a000000000000000000000000000000000000000000000000000000000815260040161142c90613132565b60405180910390fd5b61144184848484611d0f565b50505050565b606061145282611d6b565b9050919050565b6000600560008473ffffffffffffffffffffffffffffffffffffffff1673ffffffffffffffffffffffffffffffffffffffff16815260200190815260200160002060008373ffffffffffffffffffffffffffffffffffffffff1673ffffffffffffffffffffffffffffffffffffffff16815260200190815260200160002060009054906101000a900460ff16905092915050565b601080546114fa906133a1565b80601f0160208091040260200160405190810160405280929190818152602001828054611526906133a1565b80156115735780601f1061154857610100808354040283529160200191611573565b820191906000526020600020905b81548152906001019060200180831161155657829003601f168201915b505050505081565b61158361184e565b73ffffffffffffffffffffffffffffffffffffffff166115a16111a2565b73ffffffffffffffffffffffffffffffffffffffff16146115f7576040517f08c379a00000000000000000000000000000000000000000000000000000000081526004016115ee90613092565b60405180910390fd5b600073ffffffffffffffffffffffffffffffffffffffff168173ffffffffffffffffffffffffffffffffffffffff161415611667576040517f08c379a000000000000000000000000000000000000000000000000000000000815260040161165e90612ed2565b60405180910390fd5b61167081611c49565b50565b600a5481565b60007f01ffc9a7000000000000000000000000000000000000000000000000000000007bffffffffffffffffffffffffffffffffffffffffffffffffffffffff1916827bffffffffffffffffffffffffffffffffffffffffffffffffffffffff1916149050919050565b600081600001549050919050565b60006116fd6008611ebd565b600061170960086116e3565b90506000814360014361171c91906132ad565b40336040516020016117319493929190612dc0565b6040516020818303038152906040528051906020012090508060136000848152602001908152602001600020819055508160126000838152602001908152602001600020819055506117838483611ed3565b6117948261178f611ef1565b611f11565b818473ffffffffffffffffffffffffffffffffffffffff167f4410e1d7b44224caa1c0634ffc23edc40a52768e7380a919d386efa4569c658360405160405180910390a38192505050919050565b60008073ffffffffffffffffffffffffffffffffffffffff166002600084815260200190815260200160002060009054906101000a900473ffffffffffffffffffffffffffffffffffffffff1673ffffffffffffffffffffffffffffffffffffffff1614159050919050565b600033905090565b816004600083815260200190815260200160002060006101000a81548173ffffffffffffffffffffffffffffffffffffffff021916908373ffffffffffffffffffffffffffffffffffffffff160217905550808273ffffffffffffffffffffffffffffffffffffffff166118c983610e38565b73ffffffffffffffffffffffffffffffffffffffff167f8c5be1e5ebec7d5bd14f71427d1e84f3dd0314c0f7b2291e5b200ac8c7c3b92560405160405180910390a45050565b600061191a826117e2565b611959576040517f08c379a000000000000000000000000000000000000000000000000000000000815260040161195090612f72565b60405180910390fd5b600061196483610e38565b90508073ffffffffffffffffffffffffffffffffffffffff168473ffffffffffffffffffffffffffffffffffffffff1614806119d357508373ffffffffffffffffffffffffffffffffffffffff166119bb84610a26565b73ffffffffffffffffffffffffffffffffffffffff16145b806119e457506119e38185611459565b5b91505092915050565b8273ffffffffffffffffffffffffffffffffffffffff16611a0d82610e38565b73ffffffffffffffffffffffffffffffffffffffff1614611a63576040517f08c379a0000000000000000000000000000000000000000000000000000000008152600401611a5a906130b2565b60405180910390fd5b600073ffffffffffffffffffffffffffffffffffffffff168273ffffffffffffffffffffffffffffffffffffffff161415611ad3576040517f08c379a0000000000000000000000000000000000000000000000000000000008152600401611aca90612f32565b60405180910390fd5b611ade838383611f85565b611ae9600082611856565b6001600360008573ffffffffffffffffffffffffffffffffffffffff1673ffffffffffffffffffffffffffffffffffffffff1681526020019081526020016000206000828254611b3991906132ad565b925050819055506001600360008473ffffffffffffffffffffffffffffffffffffffff1673ffffffffffffffffffffffffffffffffffffffff1681526020019081526020016000206000828254611b909190613226565b92505081905550816002600083815260200190815260200160002060006101000a81548173ffffffffffffffffffffffffffffffffffffffff021916908373ffffffffffffffffffffffffffffffffffffffff160217905550808273ffffffffffffffffffffffffffffffffffffffff168473ffffffffffffffffffffffffffffffffffffffff167fddf252ad1be2c89b69c2b068fc378daa952ba7f163c4a11628f55a4df523b3ef60405160405180910390a4505050565b6000600660009054906101000a900473ffffffffffffffffffffffffffffffffffffffff16905081600660006101000a81548173ffffffffffffffffffffffffffffffffffffffff021916908373ffffffffffffffffffffffffffffffffffffffff1602179055508173ffffffffffffffffffffffffffffffffffffffff168173ffffffffffffffffffffffffffffffffffffffff167f8be0079c531659141344cd1fd0a4f28419497f9722a3daafe3b4186f6b6457e060405160405180910390a35050565b611d1a8484846119ed565b611d2684848484611f8a565b611d65576040517f08c379a0000000000000000000000000000000000000000000000000000000008152600401611d5c90612eb2565b60405180910390fd5b50505050565b6060611d76826117e2565b611db5576040517f08c379a0000000000000000000000000000000000000000000000000000000008152600401611dac90613052565b60405180910390fd5b6000600760008481526020019081526020016000208054611dd5906133a1565b80601f0160208091040260200160405190810160405280929190818152602001828054611e01906133a1565b8015611e4e5780601f10611e2357610100808354040283529160200191611e4e565b820191906000526020600020905b815481529060010190602001808311611e3157829003601f168201915b505050505090506000611e5f611ef1565b9050600081511415611e75578192505050611eb8565b600082511115611eaa578082604051602001611e92929190612d9c565b60405160208183030381529060405292505050611eb8565b611eb384612121565b925050505b919050565b6001816000016000828254019250508190555050565b611eed8282604051806020016040528060008152506121c8565b5050565b6060604051806060016040528060288152602001613c1060289139905090565b611f1a826117e2565b611f59576040517f08c379a0000000000000000000000000000000000000000000000000000000008152600401611f5090613012565b60405180910390fd5b80600760008481526020019081526020016000209080519060200190611f809291906125b1565b505050565b505050565b6000611fab8473ffffffffffffffffffffffffffffffffffffffff16612223565b15612114578373ffffffffffffffffffffffffffffffffffffffff1663150b7a02611fd461184e565b8786866040518563ffffffff1660e01b8152600401611ff69493929190612e29565b602060405180830381600087803b15801561201057600080fd5b505af192505050801561204157506040513d601f19601f8201168201806040525081019061203e9190612933565b60015b6120c4573d8060008114612071576040519150601f19603f3d011682016040523d82523d6000602084013e612076565b606091505b506000815114156120bc576040517f08c379a00000000000000000000000000000000000000000000000000000000081526004016120b390612eb2565b60405180910390fd5b805181602001fd5b63150b7a0260e01b7bffffffffffffffffffffffffffffffffffffffffffffffffffffffff1916817bffffffffffffffffffffffffffffffffffffffffffffffffffffffff191614915050612119565b600190505b949350505050565b606061212c826117e2565b61216b576040517f08c379a0000000000000000000000000000000000000000000000000000000008152600401612162906130d2565b60405180910390fd5b6000612175611ef1565b9050600081511161219557604051806020016040528060008152506121c0565b8061219f84612236565b6040516020016121b0929190612d9c565b6040516020818303038152906040525b915050919050565b6121d283836123e3565b6121df6000848484611f8a565b61221e576040517f08c379a000000000000000000000000000000000000000000000000000000000815260040161221590612eb2565b60405180910390fd5b505050565b600080823b905060008111915050919050565b6060600082141561227e576040518060400160405280600181526020017f300000000000000000000000000000000000000000000000000000000000000081525090506123de565b600082905060005b600082146122b057808061229990613404565b915050600a826122a9919061327c565b9150612286565b60008167ffffffffffffffff8111156122f2577f4e487b7100000000000000000000000000000000000000000000000000000000600052604160045260246000fd5b6040519080825280601f01601f1916602001820160405280156123245781602001600182028036833780820191505090505b5090505b600085146123d75760018261233d91906132ad565b9150600a8561234c9190613485565b60306123589190613226565b60f81b818381518110612394577f4e487b7100000000000000000000000000000000000000000000000000000000600052603260045260246000fd5b60200101907effffffffffffffffffffffffffffffffffffffffffffffffffffffffffffff1916908160001a905350600a856123d0919061327c565b9450612328565b8093505050505b919050565b600073ffffffffffffffffffffffffffffffffffffffff168273ffffffffffffffffffffffffffffffffffffffff161415612453576040517f08c379a000000000000000000000000000000000000000000000000000000000815260040161244a90613032565b60405180910390fd5b61245c816117e2565b1561249c576040517f08c379a000000000000000000000000000000000000000000000000000000000815260040161249390612ef2565b60405180910390fd5b6124a860008383611f85565b6001600360008473ffffffffffffffffffffffffffffffffffffffff1673ffffffffffffffffffffffffffffffffffffffff16815260200190815260200160002060008282546124f89190613226565b92505081905550816002600083815260200190815260200160002060006101000a81548173ffffffffffffffffffffffffffffffffffffffff021916908373ffffffffffffffffffffffffffffffffffffffff160217905550808273ffffffffffffffffffffffffffffffffffffffff16600073ffffffffffffffffffffffffffffffffffffffff167fddf252ad1be2c89b69c2b068fc378daa952ba7f163c4a11628f55a4df523b3ef60405160405180910390a45050565b8280546125bd906133a1565b90600052602060002090601f0160209004810192826125df5760008555612626565b82601f106125f857805160ff1916838001178555612626565b82800160010185558215612626579182015b8281111561262557825182559160200191906001019061260a565b5b5090506126339190612637565b5090565b5b80821115612650576000816000905550600101612638565b5090565b6000612667612662846131b2565b61318d565b90508281526020810184848401111561267f57600080fd5b61268a84828561335f565b509392505050565b6000813590506126a181613b9c565b92915050565b6000813590506126b681613bb3565b92915050565b6000813590506126cb81613bca565b92915050565b6000813590506126e081613be1565b92915050565b6000815190506126f581613be1565b92915050565b600082601f83011261270c57600080fd5b813561271c848260208601612654565b91505092915050565b60008135905061273481613bf8565b92915050565b60006020828403121561274c57600080fd5b600061275a84828501612692565b91505092915050565b6000806040838503121561277657600080fd5b600061278485828601612692565b925050602061279585828601612692565b9150509250929050565b6000806000606084860312156127b457600080fd5b60006127c286828701612692565b93505060206127d386828701612692565b92505060406127e486828701612725565b9150509250925092565b6000806000806080858703121561280457600080fd5b600061281287828801612692565b945050602061282387828801612692565b935050604061283487828801612725565b925050606085013567ffffffffffffffff81111561285157600080fd5b61285d878288016126fb565b91505092959194509250565b6000806040838503121561287c57600080fd5b600061288a85828601612692565b925050602061289b858286016126a7565b9150509250929050565b600080604083850312156128b857600080fd5b60006128c685828601612692565b92505060206128d785828601612725565b9150509250929050565b6000602082840312156128f357600080fd5b6000612901848285016126bc565b91505092915050565b60006020828403121561291c57600080fd5b600061292a848285016126d1565b91505092915050565b60006020828403121561294557600080fd5b6000612953848285016126e6565b91505092915050565b60006020828403121561296e57600080fd5b600061297c84828501612725565b91505092915050565b61298e816132e1565b82525050565b6129a56129a0826132e1565b61344d565b82525050565b6129b4816132f3565b82525050565b6129cb6129c6826132ff565b61345f565b82525050565b60006129dc826131e3565b6129e681856131f9565b93506129f681856020860161336e565b6129ff81613572565b840191505092915050565b6000612a15826131ee565b612a1f818561320a565b9350612a2f81856020860161336e565b612a3881613572565b840191505092915050565b6000612a4e826131ee565b612a58818561321b565b9350612a6881856020860161336e565b80840191505092915050565b6000612a8160328361320a565b9150612a8c82613590565b604082019050919050565b6000612aa460268361320a565b9150612aaf826135df565b604082019050919050565b6000612ac7601c8361320a565b9150612ad28261362e565b602082019050919050565b6000612aea60298361320a565b9150612af582613657565b604082019050919050565b6000612b0d60248361320a565b9150612b18826136a6565b604082019050919050565b6000612b3060198361320a565b9150612b3b826136f5565b602082019050919050565b6000612b53602c8361320a565b9150612b5e8261371e565b604082019050919050565b6000612b76603a8361320a565b9150612b818261376d565b604082019050919050565b6000612b9960388361320a565b9150612ba4826137bc565b604082019050919050565b6000612bbc602a8361320a565b9150612bc78261380b565b604082019050919050565b6000612bdf60298361320a565b9150612bea8261385a565b604082019050919050565b6000612c02602e8361320a565b9150612c0d826138a9565b604082019050919050565b6000612c2560208361320a565b9150612c30826138f8565b602082019050919050565b6000612c4860318361320a565b9150612c5382613921565b604082019050919050565b6000612c6b602c8361320a565b9150612c7682613970565b604082019050919050565b6000612c8e60208361320a565b9150612c99826139bf565b602082019050919050565b6000612cb160298361320a565b9150612cbc826139e8565b604082019050919050565b6000612cd4602f8361320a565b9150612cdf82613a37565b604082019050919050565b6000612cf7600c8361320a565b9150612d0282613a86565b602082019050919050565b6000612d1a60218361320a565b9150612d2582613aaf565b604082019050919050565b6000612d3d60318361320a565b9150612d4882613afe565b604082019050919050565b6000612d6060228361320a565b9150612d6b82613b4d565b604082019050919050565b612d7f81613355565b82525050565b612d96612d9182613355565b61347b565b82525050565b6000612da88285612a43565b9150612db48284612a43565b91508190509392505050565b6000612dcc8287612d85565b602082019150612ddc8286612d85565b602082019150612dec82856129ba565b602082019150612dfc8284612994565b60148201915081905095945050505050565b6000602082019050612e236000830184612985565b92915050565b6000608082019050612e3e6000830187612985565b612e4b6020830186612985565b612e586040830185612d76565b8181036060830152612e6a81846129d1565b905095945050505050565b6000602082019050612e8a60008301846129ab565b92915050565b60006020820190508181036000830152612eaa8184612a0a565b905092915050565b60006020820190508181036000830152612ecb81612a74565b9050919050565b60006020820190508181036000830152612eeb81612a97565b9050919050565b60006020820190508181036000830152612f0b81612aba565b9050919050565b60006020820190508181036000830152612f2b81612add565b9050919050565b60006020820190508181036000830152612f4b81612b00565b9050919050565b60006020820190508181036000830152612f6b81612b23565b9050919050565b60006020820190508181036000830152612f8b81612b46565b9050919050565b60006020820190508181036000830152612fab81612b69565b9050919050565b60006020820190508181036000830152612fcb81612b8c565b9050919050565b60006020820190508181036000830152612feb81612baf565b9050919050565b6000602082019050818103600083015261300b81612bd2565b9050919050565b6000602082019050818103600083015261302b81612bf5565b9050919050565b6000602082019050818103600083015261304b81612c18565b9050919050565b6000602082019050818103600083015261306b81612c3b565b9050919050565b6000602082019050818103600083015261308b81612c5e565b9050919050565b600060208201905081810360008301526130ab81612c81565b9050919050565b600060208201905081810360008301526130cb81612ca4565b9050919050565b600060208201905081810360008301526130eb81612cc7565b9050919050565b6000602082019050818103600083015261310b81612cea565b9050919050565b6000602082019050818103600083015261312b81612d0d565b9050919050565b6000602082019050818103600083015261314b81612d30565b9050919050565b6000602082019050818103600083015261316b81612d53565b9050919050565b60006020820190506131876000830184612d76565b92915050565b60006131976131a8565b90506131a382826133d3565b919050565b6000604051905090565b600067ffffffffffffffff8211156131cd576131cc613543565b5b6131d682613572565b9050602081019050919050565b600081519050919050565b600081519050919050565b600082825260208201905092915050565b600082825260208201905092915050565b600081905092915050565b600061323182613355565b915061323c83613355565b9250827fffffffffffffffffffffffffffffffffffffffffffffffffffffffffffffffff03821115613271576132706134b6565b5b828201905092915050565b600061328782613355565b915061329283613355565b9250826132a2576132a16134e5565b5b828204905092915050565b60006132b882613355565b91506132c383613355565b9250828210156132d6576132d56134b6565b5b828203905092915050565b60006132ec82613335565b9050919050565b60008115159050919050565b6000819050919050565b60007fffffffff0000000000000000000000000000000000000000000000000000000082169050919050565b600073ffffffffffffffffffffffffffffffffffffffff82169050919050565b6000819050919050565b82818337600083830152505050565b60005b8381101561338c578082015181840152602081019050613371565b8381111561339b576000848401525b50505050565b600060028204905060018216806133b957607f821691505b602082108114156133cd576133cc613514565b5b50919050565b6133dc82613572565b810181811067ffffffffffffffff821117156133fb576133fa613543565b5b80604052505050565b600061340f82613355565b91507fffffffffffffffffffffffffffffffffffffffffffffffffffffffffffffffff821415613442576134416134b6565b5b600182019050919050565b600061345882613469565b9050919050565b6000819050919050565b600061347482613583565b9050919050565b6000819050919050565b600061349082613355565b915061349b83613355565b9250826134ab576134aa6134e5565b5b828206905092915050565b7f4e487b7100000000000000000000000000000000000000000000000000000000600052601160045260246000fd5b7f4e487b7100000000000000000000000000000000000000000000000000000000600052601260045260246000fd5b7f4e487b7100000000000000000000000000000000000000000000000000000000600052602260045260246000fd5b7f4e487b7100000000000000000000000000000000000000000000000000000000600052604160045260246000fd5b6000601f19601f8301169050919050565b60008160601b9050919050565b7f4552433732313a207472616e7366657220746f206e6f6e20455243373231526560008201527f63656976657220696d706c656d656e7465720000000000000000000000000000602082015250565b7f4f776e61626c653a206e6577206f776e657220697320746865207a65726f206160008201527f6464726573730000000000000000000000000000000000000000000000000000602082015250565b7f4552433732313a20746f6b656e20616c7265616479206d696e74656400000000600082015250565b7f436f6e7472616374206d757374206265207374617274656420696e206f72646560008201527f7220746f206170652e0000000000000000000000000000000000000000000000602082015250565b7f4552433732313a207472616e7366657220746f20746865207a65726f2061646460008201527f7265737300000000000000000000000000000000000000000000000000000000602082015250565b7f4552433732313a20617070726f766520746f2063616c6c657200000000000000600082015250565b7f4552433732313a206f70657261746f7220717565727920666f72206e6f6e657860008201527f697374656e7420746f6b656e0000000000000000000000000000000000000000602082015250565b7f56616c7565206572726f722e20506c656173652074727920746f20617065206160008201527f6761696e206166746572207468696e6b696e67206f6e2069742e000000000000602082015250565b7f4552433732313a20617070726f76652063616c6c6572206973206e6f74206f7760008201527f6e6572206e6f7220617070726f76656420666f7220616c6c0000000000000000602082015250565b7f4552433732313a2062616c616e636520717565727920666f7220746865207a6560008201527f726f206164647265737300000000000000000000000000000000000000000000602082015250565b7f4552433732313a206f776e657220717565727920666f72206e6f6e657869737460008201527f656e7420746f6b656e0000000000000000000000000000000000000000000000602082015250565b7f45524337323155524953746f726167653a2055524920736574206f66206e6f6e60008201527f6578697374656e7420746f6b656e000000000000000000000000000000000000602082015250565b7f4552433732313a206d696e7420746f20746865207a65726f2061646472657373600082015250565b7f45524337323155524953746f726167653a2055524920717565727920666f722060008201527f6e6f6e6578697374656e7420746f6b656e000000000000000000000000000000602082015250565b7f4552433732313a20617070726f76656420717565727920666f72206e6f6e657860008201527f697374656e7420746f6b656e0000000000000000000000000000000000000000602082015250565b7f4f776e61626c653a2063616c6c6572206973206e6f7420746865206f776e6572600082015250565b7f4552433732313a207472616e73666572206f6620746f6b656e2074686174206960008201527f73206e6f74206f776e0000000000000000000000000000000000000000000000602082015250565b7f4552433732314d657461646174613a2055524920717565727920666f72206e6f60008201527f6e6578697374656e7420746f6b656e0000000000000000000000000000000000602082015250565b7f56616c7565206572726f722e0000000000000000000000000000000000000000600082015250565b7f4552433732313a20617070726f76616c20746f2063757272656e74206f776e6560008201527f7200000000000000000000000000000000000000000000000000000000000000602082015250565b7f4552433732313a207472616e736665722063616c6c6572206973206e6f74206f60008201527f776e6572206e6f7220617070726f766564000000000000000000000000000000602082015250565b7f436f6e7472616374206e6565647320746f2062652073746f707065642066726560008201527f6e2e000000000000000000000000000000000000000000000000000000000000602082015250565b613ba5816132e1565b8114613bb057600080fd5b50565b613bbc816132f3565b8114613bc757600080fd5b50565b613bd3816132ff565b8114613bde57600080fd5b50565b613bea81613309565b8114613bf557600080fd5b50565b613c0181613355565b8114613c0c57600080fd5b5056fe68747470733a2f2f66726f7a656e2d637261672d39323234372e6865726f6b756170702e636f6d2fa264697066735822122099c0b2f493410f7820f166edfc40a52d36f46dfaa4742c7d91dca50dcfe8bbf664736f6c63430008040033",
  "linkReferences": {},
  "deployedLinkReferences": {}
}